S027000044617463682048617264636F72652047323720526163696E6720576865656C2E7372656378
S1130000C2C00000DCC00000DAC0000076C10000FD
S1130010D6C00000D4C00000D2C00000D0C0000090
S1130020CEC00000CCC000000C94780AC8C0000008
S1130030C6C00000C4C00000C2C00000C0C00000B0
S1130040BEC00000BCC00000BAC00000B8C00000C0
S1130050B6C00000B4C00000B2C00000B0C00000D0
S1130060AEC00000ACC00000AAC00000A8C00000E0
S1130070A6C00000A4C00000A2C00000A0C00000F0
S11300809EC000009CC000009AC0000098C0000000
S113009096C0000094C0000092C0000090C0000010
S11300A08EC000008CC000008AC0000034034C00E5
S11300B06F00670069007400650063006800200039
S11300C047003200350020005200610063006900DF
S11300D06E006700200057006800650065006C0032
S11300E0000012034C006F00670069007400650093
S11300F063006800000004030904090222000101EE
S113010000C03209040000010300000009211101AC
S1130110000122580007058103080005120110019F
S1130120000000086D0499C20100010200010501EC
S11301300904A101A102150025013500450175013D
S113014095130509190129138102950581010501FA
S11301502507463B017504950165140939814265FB
S1130160009501810126FF0F46FF0F09300931096F
S11301703209350936751095058102C0A1020902BC
S113018095079102C0C011241FBECFEFDAE0DEBF95
S1130190CDBF11E0A0E0B1E0E0E3FDE102C00590D5
S11301A00D92AC31B107D9F721E0ACE1B1E001C067
S11301B01D92A434B207E1F7F3D00C94960E20CF2D
S11301C0EAE7F0E096E89083982F90729068909315
S11301D07B008F7190910001892B80937C0086ECC9
S11301E08083808186FDFDCF809178002091790005
S11301F090E0922B0895292F332723303105C9F03D
S113020044F42130310509F439C02230310561F05C
S113021006C02132310541F12232310551F180E02D
S113022090E020E030E033C082E290E02AEF30E05A
S11302302EC099278130910559F08230910571F0D3
S1130240892B09F5E6EFF0E0849190E09F011FC04F
S1130250E2EEF0E0849190E09F0119C0ECEAF0E056
S1130260849190E09F0113C089E090E02CE031E09C
S11302700EC088E590E02EE231E009C082E190E012
S11302802CE131E004C080E090E020E030E0FA01AD
S113029031832083089586E696E6A6E6BFE380933D
S11302A0170190931801A0931901B0931A0183EEDA
S11302B098E0A0E0B0E08093300190933101A093E6
S11302C03201B093330110922F0110922E0110923B
S11302D02D0110922C0110922B0110922A010895E5
S11302E084B5836884BD81E085BD279A0895811112
S11302F002C02F98089587BD08951F920F920FB6DC
S11303000F9211248F934A9B0DC0499B06C0809184
S113031034018F5F8093340105C080913401815092
S1130320809334014A990DC0499B06C080913401E1
S113033081508093340105C0809134018F5F809394
S113034034018F910F900FBE0F901F90189584B7B2
S1130350877F84BF88E10FB6F89480936000109281
S113036060000FBE90E080E80FB6F89480936100BF
S1130370909361000FBE0E945A0A3F9A3E9A219AB6
S1130380269A259A509A2498579856985498539890
S1130390529887988698859884988198809808952B
S11303A0D6DF79DF9DDF84E08DBB80E18093690037
S11303B085B7806185BF7894789481E091E071D4A9
S11303C00E94AB0CFACF0895089581E091E055D4D2
S11303D0E2EEF0E0808184608083089581E091E022
S11303E002C3089580910F0190911001009729F0A4
S11303F001979093100180930F010895AF92BF92DB
S1130400CF92DF92EF92FF920F931F93CF93DF93DC
S1130410E90140913401552747FD5095652F752F0B
S11304208091300190913101A0913201B09133015A
S11304306A017B01C80ED91EEA1EFB1EC701B60164
S1130440C0923001D0923101E0923201F092330136
S113045010923401A0901101B090120195012F5710
S113046031092230310520F46894AA24A7F8B12C6C
S11304700E94620D209117013091180140911901D9
S113048050911A010E94160E6B017C0120E030E0AD
S11304904EEF52E40E942B0D882394F4A701960199
S11304A060E070E08FE793E40E94C60C0E942F0D79
S11304B05B016F3F710521F01CF0AA24AA94B12CB2
S11304C020E030E048E755E4C701B6010E94120E6F
S11304D018167CF4A701960160E070EF8FE795E4AD
S11304E00E94C60C0E942F0D5B01772314F4A12CEB
S11304F0B12C61E8A616B1044CF0299A589880E80A
S1130500A81AB108C501880F991F11C090E8A9164F
S1130510B10429F42998589881E090E008C02998FA
S1130520589A8FE790E08A199B09880F991FDFDE9C
S113053087E046DE90932F0180932E0186E040DE13
S113054090932D0180932C0185E03ADE90932B014A
S113055080932A0181E034DE909316018093150183
S113056084E02EDE90931401809313016091300196
S11305707091310180913201909133010E94620D9A
S113058020911701309118014091190150911A01DD
S11305900E94160E6B017C0120E030EF4FE755E41A
S11305A00E94120E181674F020E030E0A901C70171
S11305B0B6010E942B0D882344F0C701B6010E94A6
S11305C0340D05C06FEF7FE002C060E070E07D8312
S11305D06C8380912E0190912F018B3F9105BCF08B
S11305E08438E3E09E07B4F4BC016A5F710988278C
S11305F077FD8095982F0E94620D2AE939E949EC2C
S113060050E40E94160E0E94340D7B0109C0E12CB7
S1130610F12C06C00F2EEE24EA94FFE0FF2EF02DFD
S1130620F986E88680912C0190912D01893C9105F1
S1130630F4F08438F3E09F07ECF4BC01685C7109C2
S1130640882777FD8095982F0E94620D23E333E37A
S11306504BEB50E40E94160E9B01AC0160E070EF7E
S11306608FE795E40E94C60C0E94340D05C06FEF1D
S11306707FE002C060E070E07B876A8780912A0196
S113068090912B018D3C910554F08C5C91099C0157
S1130690220F331F220F331F820F931F02C080E0EB
S11306A090E09D878C87F694E79428EFF21A76956C
S11306B06795E61AF70AFF82EE82479A469A2E9ABF
S11306C02D9A46982E982D988FEC97E00197F1F784
S11306D000C000001C9B04C088818160888303C023
S11306E088818E7F88834F9B04C088818260888341
S11306F003C088818D7F88834E9B04C08881846079
S1130700888303C088818B7F88834C9B04C0888145
S11307108061888303C088818F7E8883469A2E9A5D
S11307202D9A47982E982D98EFECF7E03197F1F732
S113073000C000001C9B04C088818860888303C0BB
S11307408881877F88834F9B04C0898180688983DF
S113075003C089818F7789834E9B04C08A8181601D
S11307608A8303C08A818E7F8A834C9B04C08881DC
S11307708062888303C088818F7D8883479A2E9AFC
S11307802D9A479846982D988FEC97E00197F1F7AA
S113079000C000001C9B04C08A8182608A8303C05D
S11307A08A818D7F8A834F9B04C08A8184608A8377
S11307B003C08A818B7F8A8339B136FB332730F9B2
S11307C04C9B04C088818064888303C088818F7BAC
S11307D08883479A469A2D9A479846982E98EFEC24
S11307E0F7E03197F1F700C0000023B1207149B15F
S11307F0441F4427441F59B14C9B04C0888180681E
S1130800888303C088818F778883479A469A2E9A73
S11308108091130190911401833B92405CF080918C
S11308201501909116018A34924024F089818160E7
S1130830898303C089818E7F89838091130190917C
S11308401401873692405CF4809115019091160151
S11308508A34924024F089818260898303C089812B
S11308608D7F89838091130190911401833B924081
S113087064F0809115019091160183519240C697BE
S113088020F489818460898303C089818B7F898373
S113089080911301909114018736924064F4809101
S11308A015019091160183519240C69720F48981D5
S11308B08860898303C08981877F8983809113013C
S11308C090911401833B924064F0809115019091C2
S11308D01601815E9140C19720F4898180618983EA
S11308E003C089818F7E89838091130190911401C3
S11308F08736924064F48091150190911601815ECF
S11309009140C19720F489818062898303C08981E1
S11309108F7D8983809113019091140187369240D1
S11309205CF48091150190911601803E914024F46D
S113093089818064898303C089818F7B8983222391
S113094061F0313019F487E08B8322C0413019F40F
S113095081E08B831DC01B821BC056FF0DC031304C
S113096019F485E08B8314C0413019F483E08B8340
S11309700FC084E08B830CC0313019F486E08B8384
S113098007C0413019F088E08B8302C082E08B837A
S11309908EE090E0F8019183808381E0DF91CF9134
S11309A01F910F91FF90EF90DF90CF90BF90AF9089
S11309B00895F90130933601209335018081813106
S11309C041F48281992787FD909590931201809339
S11309D011018081833131F480E890E09093120119
S11309E08093110108953F924F925F926F927F928C
S11309F08F929F92AF92BF92CF92DF92EF92FF922B
S1130A000F931F93CF93DF9300D01F92CDB7DEB720
S1130A106C01EDB6FEB68091E80083FF14C1F601C7
S1130A20808190E0209140013091410128173907DD
S1130A3009F009C180913D01833009F4A1C030F46B
S1130A40813071F0823009F4E3C0FDC08A3009F4CA
S1130A50C3C08B3009F4ACC0893009F0F4C052C073
S1130A6080913C01813A09F0EEC08DB69EB61A829F
S1130A701982EEE3F1E0808111818B83F6014085D8
S1130A8050E08DB79EB7841B950B0FB6F8949EBFAC
S1130A900FBE8DBFEDB7FEB731965F0160E070E029
S1130AA0CF010E948F0E4FEF410F8E010F5F1F4F3A
S1130AB09501BE016D5F7F4FC601A0DCF601868102
S1130AC09781009729F0408550E0B5010E94860E79
S1130AD01092E900E8EEF0E08081877F80838B81CB
S1130AE081118093F10069817A81C501F4D1E8EE26
S1130AF0F0E080818B7780830FB6F8949EBE0FBEA2
S1130B008DBEA1C080913C01813209F09CC06DB6BC
S1130B107EB6A0904201B0904301EEE3F1E0508034
S1130B2041808DB79EB78A199B090FB6F8949EBF72
S1130B300FBE8DBFEDB7FEB731964F0108EE10E042
S1130B40F8018081877F8083B501C40149D2F8010F
S1130B5080818E77808321E0511001C020E030E055
S1130B608501021B130B280D391D4FEF440D652D14
S1130B70C6011FDF0FB6F8947EBE0FBE6DBE63C004
S1130B8080913C01813A09F05EC0E8EEF0E080819A
S1130B90877F8083808180FFFDCFF60181858093EC
S1130BA0F100E8EEF0E080818E778083DDD34BC0E6
S1130BB080913C01813209F046C0E8EEF0E080818A
S1130BC0877F8083D1D390913E0181E0911101C050
S1130BD080E0F601818737C080913C01813299F52C
S1130BE0E8EEF0E08081877F8083BED380913E0170
S1130BF090913F0188270024880F991F001C880FBB
S1130C00991F001C892F902DF601958784871BC09E
S1130C1080913C01813AB9F4E8EEF0E08081877F6D
S1130C208083808180FFFDCFF6018485958596952C
S1130C308795969587958093F100E8EEF0E08081A2
S1130C408E77808391D30FB6F894FEBE0FBEEDBEAF
S1130C500F900F900F90DF91CF911F910F91FF9004
S1130C60EF90DF90CF90BF90AF909F908F907F9048
S1130C706F905F904F903F900895FC01399627E064
S1130C80DF011D922A95E9F721E0FC01218724EF79
S1130C9031E03587248723E0248361E0019607C38C
S1130CA008955F926F927F928F929F92AF92BF92BC
S1130CB0CF92DF92EF92FF920F931F93CF93DF9324
S1130CC000D01F92CDB7DEB77C01CDB6DEB68091E1
S1130CD03B01843009F08AC08091E4009091E500E2
S1130CE0F701228533852817390709F47FC08181EC
S1130CF08F708093E9008091E80085FF77C08DB6FE
S1130D009EB6408550E08DB79EB7841B950B0FB6F9
S1130D10F8949EBF0FBE8DBFEDB7FEB731965F014D
S1130D201B821A82198260E070E0CF01F8D78E012D
S1130D300F5F1F4F950140E0BE016D5F7F4FC701FC
S1130D405DDB682EF70124853585232B41F021E0F6
S1130D5086859785892B09F020E0522E01C0512CFD
S1130D60F701068117810115110589F049815A811E
S1130D70B801C501BED777247394892B09F4712C6B
S1130D80F701408550E0B501C801C0D701C0712CFE
S1130D9029813A81232BF1F0611004C0711002C043
S1130DA050FE18C0F70184859585978786878181D1
S1130DB08F708093E9008B8181118093F1006981A8
S1130DC07A8140E050E0C50129D0E8EEF0E080816E
S1130DD08E7780838091E4009091E500F7019387FA
S1130DE082870FB6F8949EBE0FBE8DBE0FB6F894E0
S1130DF0DEBE0FBECDBE0F900F900F90DF91CF914E
S1130E001F910F91FF90EF90DF90CF90BF90AF9024
S1130E109F908F907F906F905F9008958F929F9294
S1130E20AF92BF92CF92DF92EF92FF920F931F93F4
S1130E30CF93DF937C01EB015A01BAD281113EC0FA
S1130E40A114B10439F0F50180819181C81BD90B3B
S1130E50E80EF91E209779F100E010E00F2EF8EE6D
S1130E608F2E912CF02D0F2EF1EFCF2ED12CF02DB3
S1130E70F401808185FD14C080818E7780836BD5D9
S1130E80A114B10449F0F50180819181080F191F63
S1130E901183008385E012C08BD2882349F00EC0F1
S1130EA0F70181917F01F601808321970F5F1F4F26
S1130EB02097F1F602C080E001C080E0DF91CF917D
S1130EC01F910F91FF90EF90DF90CF90BF90AF9064
S1130ED09F908F900895DF92EF92FF920F931F934C
S1130EE0CF93DF93209142013091430126173707B6
S1130EF058F06115710539F4E8EEF0E020812E77A1
S1130F0020839B0101C09B01A0E0E8EEF0E003EF29
S1130F1010E062EF70E0C1EFD0E0FF24F394E12C25
S1130F2038C040913B01442309F447C0453009F4DB
S1130F3046C0408143FD45C0408142FF03C0E8EE06
S1130F40F0E036C0408140FF24C0D801DC90DB01D2
S1130F504C9150E05D292115310599F04830510537
S1130F6080F4A82FB92F8D9188838A2F9B2F21502D
S1130F7031094F5F5F4F2115310519F04830510594
S1130F8091F7AF2D4830510509F0AE2D40814E77D1
S1130F9040832115310529F6A111C3CFD0CF80910B
S1130FA03B01882381F0853081F0808183FD0FC06F
S1130FB0808182FFF4CF80E00BC082E009C083E02F
S1130FC007C081E005C082E003C083E001C081E086
S1130FD0DF91CF911F910F91FF90EF90DF900895D3
S1130FE0CF92DF92FF920F931F93CF93DF936115FC
S1130FF0710529F4E8EEF0E020812B772083E8EEF8
S1131000F0E043EF50E00F2EF2EFCF2ED12CF02D75
S113101001EF10E022C020913B012223E1F12530B1
S1131020E1F1208123FD3BC0208122FFF4CF43C0A6
S1131030E80188818D938A2F9B2F61507109611576
S1131040710541F0EA01F880E601288130E03F298A
S1131050232B71F720812B7720836115710519F4F7
S1131060E8EEF0E013C020913B012223D1F02530BB
S1131070D1F0208123FD19C0208122FD1CC0CBCFDB
S113108080913B01882399F0853099F0808180FF1D
S1131090F7CF80E01BC082E019C083E017C081E075
S11310A015C082E013C083E011C081E00FC082E06C
S11310B00DC083E00BC0EA01A881E601288130E07D
S11310C03A2B232B39F2A82FB92FB2CFDF91CF912E
S11310D01F910F91FF90DF90CF900895CF92DF92F0
S11310E0FF920F931F93CF93DF932091420130918E
S11310F043012617370758F06115710539F4E8EEF6
S1131100F0E020812E7720839B0101C09B01E82F12
S1131110F92F10E0A8EEB0E063EF70E042EF50E08A
S11311200F2EF1EFCF2ED12CF02D01E0F12C34C095
S113113080913B01882309F443C0853009F442C0FF
S11311408C9183FD41C08C9182FF03C0E8EEF0E0F6
S113115032C08C9180FF20C0EB011881EA018881A4
S113116090E0912B2115310581F08830910568F4C8
S11311701491E60118833196215031090196211505
S1131180310519F08830910599F7102F089709F067
S11311901F2D8C918E778C932115310549F61111F1
S11311A0C7CFD4CF80913B01882381F0853081F073
S11311B0808183FD0FC0808182FFF4CF80E00BC06B
S11311C082E009C083E007C081E005C082E003C07B
S11311D083E001C081E0DF91CF911F910F91FF90D7
S11311E0DF90CF9008958F929F92BF92CF92DF921B
S11311F0EF92FF920F931F93CF93DF93873070F199
S113120026C0592F5F70E8015883891731F0E9012E
S1131210D8805081E401788103C05B2DD62E7C2DCB
S113122051FF12C04C914E7F4C9340814D7F4083BF
S11312304C9141604C93E901D8825083E401788356
S1131240E7015881552344F49F5F9730D1F68F709E
S11312508093E90081E01FC080E01DC0982F9F703B
S11312609093E900982F542FD62E70E0ABEEB0E0A7
S1131270EDEEF0E02CEE30E00F2EF0EF8F2E912CFF
S1131280F02D0F2EFEEEEF2EF12CF02D09EE10E0D6
S1131290B42EC12CC5CFDF91CF911F910F91FF9038
S11312A0EF90DF90CF90BF909F908F900895BF9262
S11312B0CF92DF92EF92FF920F931F93CF93DF931E
S11312C0062F662309F441C0C82FD92F10E0F12C52
S11312D06894DD24D3F8E12C6894BB24B1F80F2E74
S11312E0F6E0CF2EF02D5881552351F19C81E981F0
S11312F0FA817B81852F8F70873048F5923010F00A
S11313004C2D01C04B2DE930F10550F02D2D3E2D13
S11313109F2D9F5F220F331F2E173F07D0F301C06D
S11313209F2D9295907F492B551F5527551F90E46B
S1131330799F90011124652F622B55DF882351F08A
S11313401F5F25961013CFCF04C081E003C080E057
S113135001C081E0DF91CF911F910F91FF90EF9039
S1131360DF90CF90BF90089580913C0188231CF0BA
S1131370E8EEF0E014C0E8EEF0E004C080913B0138
S11313808823A9F0808182FFF9CFE8EEF0E0808124
S11313908B778083089580913B01882341F080817D
S11313A080FFF9CFE8EEF0E080818E7780830895A6
S11313B00F931F93CF93DF932091E4003091E500C6
S11313C065E6ACEEB0E0E8EEF0E00BEE10E044EEE3
S11313D050E08C9180FD21C024C080913B01882382
S11313E081F0853081F0E801888185FD0EC0EA0135
S11313F0888199812817390761F3615041F09C0174
S1131400E8CF82E012C083E010C081E00EC084E027
S11314100CC080E00AC080E008C0808180FFDDCF7E
S1131420F8CF808182FFD9CFF6CFDF91CF911F9182
S11314300F9108950F931F93CF93DF934CD053D004
S1131440C8EDD0E088818F7788838881806888831D
S113145088818F7D888319BC10923B0110923701DB
S1131460109239011092380100EE10E0F8018081E9
S11314708B7F808388818160888342E060E080E0A4
S1131480B2DEE1EEF0E080818E7F8083E2EEF0E078
S1131490808181608083808188608083F80180817D
S11314A08E7F8083888180618883DF91CF911F91B3
S11314B00F910895E8EDF0E080818F7E8083E7ED61
S11314C0F0E080818160808384E082BF81E080934A
S11314D03A01B0CF0895E8EDF0E080818E7F8083FB
S11314E01092E20008951092DA001092E10008953B
S11314F01F920F920FB60F9211242F933F934F9385
S11315005F936F937F938F939F93AF93BF93EF9367
S1131510FF938091E10082FF0BC08091E20082FF83
S113152007C0E1EEF0E080818B7F80830E94F201AE
S11315308091DA0080FF1FC08091D80080FF1BC01B
S1131540EAEDF0E080818E7F80838091D90080FF76
S11315500DC080E189BD82E189BD09B400FEFDCFE3
S113156081E080933B010E94E30105C019BC109205
S11315703B010E94E4018091E10080FF16C080914C
S1131580E20080FF12C0E2EEF0E080818E7F808373
S1131590808180618083E8EDF0E0808180628083D7
S11315A019BC85E080933B01D5D18091E10084FF93
S11315B02FC08091E20084FF2BC080E189BD82E1CD
S11315C089BD09B400FEFDCFE8EDF0E080818F7D98
S11315D08083E1EEF0E080818F7E8083E2EEF0E0B4
S11315E080818F7E808380818160808380913701B8
S11315F0882321F084E080933B0109C08091E300BB
S1131600882314F483E001C081E080933B01A2D1DC
S11316108091E10083FF1EC08091E20083FF1AC025
S1131620E1EEF0E08081877F808382E080933B015C
S11316301092370180818E7F8083E2EEF0E080811A
S11316408E7F808380818061808342E060E080E0DF
S1131650CADD80D1FF91EF91BF91AF919F918F919E
S11316607F916F915F914F913F912F910F900FBE9A
S11316700F901F9018950F931F93CF93DF93CDB7BF
S1131680DEB7AA970FB6F894DEBF0FBECDBFECE36A
S1131690F1E084E491E0A1EFB0E02C912193E8170C
S11316A0F907D9F70E94EE018091E80083FF2DC16C
S11316B090913C0180913D01853009F478C030F46B
S11316C08130B1F168F0833099F11FC1883009F499
S11316D0E9C0893009F4F6C0863009F016C18AC021
S11316E0903821F0923809F010C108C08091380177
S11316F090913901992371F082600CC0809140016E
S11317008F70E9EEF0E080838091EB0085FB882701
S113171080F91082E8EEF0E09081977F9083A1EF4A
S1131720B0E08C931C9280818E7780831DDEEDC0A7
S1131730992309F4F9C0923009F0E7C0FAC091E0A6
S1131740833009F090E09093390128C02091400142
S11317502F7009F4DAC02093E9008091EB0080FF38
S11317601DC080913D01833031F4EBEEF0E08081C7
S11317708062808313C0EBEEF0E08081806180831F
S113178081E090E002C0880F991F2A95E2F7AAEE43
S1131790B0E08C931C928081886080831092E90071
S11317A0E8EEF0E08081877F8083DEDDAEC09111BA
S11317B0ACC010913E011F77E3EEF0E080818078A9
S11317C0812B8083E8EEF0E08081877F8083CCDD0D
S11317D0E8EEF0E0808180FFFDCFE3EEF0E0808171
S11317E080688083112311F083E001C082E080933C
S11317F03B018BC09058923008F087C080913E0125
S113180090913F018C3D23E0920799F583E08A8310
S11318108AE289835FB7F894DE01139620E03EE004
S113182041E2E32FF0E040935700849120FF03C08E
S113183082958F703F5F8F708A3018F090E0C79662
S113184002C090E0C0968D939D932F5F243149F799
S11318505FBF08EE10E0F8018081877F80836AE231
S113186070E0CE01019637DBF80180818B778083AD
S11318704CC0AE014F5F5F4F609140010E94FB007E
S1131880009709F442C008EE10E0F8012081277F98
S11318902083BC0189819A8121DCF80180818B77C6
S11318A0808333C0903889F5E8EEF0E08081877F4B
S11318B08083809137018093F10080818E778083CB
S11318C053DD23C0911121C080913E018230E8F4A0
S11318D0E8EEF0E08081877F808380913E018093F1
S11318E0370142DD80913701882321F084E0809321
S11318F03B0109C08091E300882314F484E001C013
S113190081E080933B010E94E5018091E80083FF20
S113191016C0E8EEF0E08081877F8083EBEEF0E094
S11319208081806280830BC090913E01913069F781
S113193006CF80913E01882309F408CF2FCFAA96C1
S11319400FB6F894DEBF0FBECDBFDF91CF911F91CC
S11319500F9108950895CF9380913B018823A1F0BE
S1131960C091E900CF708091EC0080FF02C080E854
S113197001C080E0C82B1092E9008091E80083FD4B
S11319807ADECF70C093E900CF9108955058BB27F9
S1131990AA270ED00DC1FED030F003D120F031F4CF
S11319A09F3F11F41EF4F3C00EF4E095E7FBE9C089
S11319B0E92F0FD180F3BA176207730784079507DD
S11319C018F071F49EF527C10EF4E0950B2EBA2F92
S11319D0A02D0B01B90190010C01CA01A001112431
S11319E0FF27591B99F0593F50F4503E68F11A16DD
S11319F0F040A22F232F342F4427585FF3CF46956E
S1131A0037952795A795F0405395C9F77EF41F168F
S1131A10BA0B620B730B840BBAF09150A1F0FF0F59
S1131A20BB1F661F771F881FC2F70EC0BA0F621F45
S1131A30731F841F48F4879577956795B795F79535
S1131A409E3F08F0B3CF9395880F08F09927EE0FC7
S1131A5097958795089571D008F481E0089504D08E
S1131A606894B111D9C00895BCD088F09F5790F004
S1131A70B92F9927B751A0F0D1F0660F771F881FAF
S1131A80991F1AF0BA95C9F712C0B13081F0C3D0CA
S1131A90B1E00895C0C0672F782F8827B85F39F068
S1131AA0B93FCCF3869577956795B395D9F73EF40E
S1131AB090958095709561957F4F8F4F9F4F0895B6
S1131AC0E89409C097FB3EF49095809570956195D4
S1131AD07F4F8F4F9F4F9923A9F0F92F96E9BB278A
S1131AE09395F695879577956795B795F111F8CF06
S1131AF0FAF4BB0F11F460FF1BC06F5F7F4F8F4F71
S1131B009F4F16C0882311F096E911C0772321F066
S1131B109EE8872F762F05C0662371F096E8862FFE
S1131B2070E060E02AF09A95660F771F881FDAF755
S1131B30880F9695879597F90895990F0008550F82
S1131B40AA0BE0E8FEEF16161706E807F907C0F03F
S1131B5012161306E407F50798F0621B730B840B47
S1131B60950B39F40A2661F0232B242B252B21F421
S1131B7008950A2609F4A140A6958FEF811D811DC1
S1131B80089597F99F6780E870E060E008959FEFFB
S1131B9080EC089500240A94161617061806090600
S1131BA0089500240A9412161306140605060895CF
S1131BB0092E0394000C11F4882352F0BB0F40F457
S1131BC0BF2B11F460FF04C06F5F7F4F8F4F9F4F97
S1131BD0089557FD9058440F551F59F05F3F71F019
S1131BE04795880F97FB991F61F09F3F79F0879580
S1131BF00895121613061406551FF2CF4695F1DF09
S1131C0008C0161617061806991FF1CF8695710598
S1131C10610508940895E894BB2766277727CB01CC
S1131C2097F908958ADF08F48FEF08950BD0C0CF99
S1131C30B1DF28F0B6DF18F0952309F0A2CFA7CFC3
S1131C401124EACFC6DFA0F3959FD1F3950F50E09E
S1131C50551F629FF001729FBB27F00DB11D639F5A
S1131C60AA27F00DB11DAA1F649F6627B00DA11D00
S1131C70661F829F2227B00DA11D621F739FB00DA6
S1131C80A11D621F839FA00D611D221F749F332716
S1131C90A00D611D231F849F600D211D822F762FAF
S1131CA06A2F11249F5750408AF0E1F088234AF0AC
S1131CB0EE0FFF1FBB1F661F771F881F91505040F8
S1131CC0A9F79E3F510570F05CCFA6CF5F3FECF3C0
S1131CD0983EDCF3869577956795B795F795E795E4
S1131CE09F5FC1F7FE2B880F911D9695879597F9F5
S1131CF00895FB01DC0104C08D910190801921F449
S1131D0041505040C8F7881B990B0895FB01DC0132
S1131D1002C001900D9241505040D8F70895DC0163
S1131D2001C06D9341505040E0F70895F894FFCFFF
S1131D30400081080000011C010E000000000000AA
S10F1D40008000000200020000803F0050
S9030000FC
